:100000000C942A000C943C000C943C000C943C0092
:100010000C943C000C943C000C943C000C943C0070
:100020000C943C000C943C000C943C000C943C0060
:100030000C943C000C943C000C943C000C943C0050
:100040000C943C000C943C000C943C000C943C0040
:100050000C943C0011241FBECFE5D8E0DEBFCDBF1D
:1000600020E0A0E6B0E001C01D92A136B207E1F7A2
:100070000E9410010C9470010C94000080E884BF71
:1000800084BF8FEF84BB87BB81B38F7B81BB82B37F
:10009000806482BB81B38C6381BB8CEF8ABB80E4BC
:1000A00087B986E886B90895869903C081E0809370
:1000B0006000089597B1987F8770892B87B985E88C
:1000C0008A95F1F7000086B1806486B93699FECF33
:1000D00084B195B10895813059F48BB36F7070E09D
:1000E000660F771F660F771F837C682B6BBB0895A5
:1000F0002BB330E4639FC0011124922F9F73892B8F
:100100008BBB82B3837F6C70682B62BB0895FF92B8
:100110000F931F93CF93DF93F82E062F10E019C093
:10012000602F8F2D0E946B00C0E0D0E00DC00E94B8
:10013000540080916000811114C08FE19EE401970A
:10014000F1F700C000002196C436D10584F30150B8
:10015000110911232CF760E08F2D0E946B0080E0C5
:1001600001C081E0DF91CF911F910F91FF90089521
:1001700088B3817E88BB82B38F7C82BB08950E9446
:10018000B80089E085BB88B3806288BB80E090E0DE
:1001900007C0EFE1FEE43197F1F700C000000196DF
:1001A000843FF1E09F07ACF388B38F7D88BB10924A
:1001B000600008958CE085BB82B3806182BB88B308
:1001C000826088BB68E081E00E94870081110CC0DA
:1001D0008AE085BB0E94B80063E081E00E9487004E
:1001E000811102C089E085BB089581E285BB82B39D
:1001F000806282BB88B3886088BB68E082E00E942E
:10020000870081110CC081E185BB0E94B80063E0CA
:1002100082E00E948700811102C089E085BB0895B9
:100220000E943E000E9454008091600081110E9453
:10023000BF0080E00E945A00EC018FE097E2019736
:10024000F1F700C0000081E00E945A00C03921E0AF
:10025000D20720F5803921E0920700F58C179D0721
:1002600078F00E94DA00809160008111DBCF81E09C
:100270000E945A0080399140A8F60E94F500D2CF22
:100280000E94F500809160008111CCCF0E945A003D
:100290008039914038F60E94DA00C4CFC039D1408D
:1002A00018F40E94DA00BECF8039914018F40E9401
:1002B000F500B8CF89E085BB0E94B80060E081E01E
:1002C0000E946B0060E082E00E946B008FEF90E77D
:1002D00022E0815090402040E1F700C00000A2CF12
:0402E000F894FFCFC0
:00000001FF
